:020000040800F2
:10000000B0090020890100089F220008391F00085C
:100010009D220008D5030008D92400080000000034
:10002000000000000000000000000000A322000803
:100030000F04000800000000A1220008A52200080B
:10004000A3010008A3010008A3010008A301000800
:10005000A3010008A3010008A3010008A3010008F0
:10006000A3010008A3010008A3010008D9030008A8
:10007000A3010008A3010008A3010008A3010008D0
:10008000A3010008A3010008A3010008A3010008C0
:10009000A3010008A3010008A3010008A3010008B0
:1000A000A3010008A3010008A3010008A3010008A0
:1000B00025230008312300083D230008A301000880
:1000C000A3010008A3010008A3010008A301000880
:1000D000A3010008A3010008A3010008A301000870
:1000E000A3010008A3010008A301000800F002F822
:1000F00000F03AF80AA090E8000C82448344AAF188
:100100000107DA4501D100F02FF8AFF2090EBAE885
:100110000F0013F0010F18BFFB1A43F0010318473B
:100120000026000020260000103A24BF78C878C1BD
:10013000FAD8520724BF30C830C144BF04680C60ED
:10014000704700000023002400250026103A28BF35
:1001500078C1FBD8520728BF30C148BF0B60704739
:100160001FB51FBD10B510BD00F058F81146FFF7C0
:10017000F7FF02F04BFA00F076F803B4FFF7F2FF56
:1001800003BC00F07DF8000009488047094800479B
:10019000FEE7FEE7FEE7FEE7FEE7FEE7FEE7FEE737
:1001A000FEE7FEE704480549054A064B7047000094
:1001B00021230008ED000008B0030020B009002052
:1001C000B0050020B00500204FF0000200B5134636
:1001D00094469646203922BFA0E80C50A0E80C5067
:1001E000B1F12001BFF4F7AF090728BFA0E80C5018
:1001F00048BF0CC05DF804EB890028BF40F8042B11
:1002000008BF704748BF20F8022B11F0804F18BF7D
:1002100000F8012B7047704770477047754600F033
:100220002BF8AE4605006946534620F00700854688
:1002300018B020B5FFF7B6FFBDE820404FF000062C
:100240004FF000074FF000084FF0000B21F00701BE
:10025000AC46ACE8C009ACE8C009ACE8C009ACE801
:10026000C0098D46704710B50446AFF300802046A4
:10027000BDE81040FFF781BF004870474C030020E5
:1002800001491820ABBEFEE72600020070470000BF
:1002900070B5044600688168C943C90717D18168F1
:1002A00021F00101816000F023FF05460AE000BF54
:1002B00000F01EFF401B022804D920688068C0435C
:1002C000C00706D020688068C043C007F0D0002077
:1002D00070BDA06A40F01000A062E06A40F001002A
:1002E000E062012070BD10B50146406A826A12F0DA
:1002F000500F05D0006A026BBDE810400846104759
:10030000816A41F40071816201688968C1F34241E8
:1003100007290CD1017B51B9816A21F48071816276
:10032000816AC90403D4816A41F00101816200F04D
:1003300015F910BD10B5406A816A41F04001816233
:10034000C16A41F00401C16200F019F910BD10B595
:10035000406A00F013F910BDF8B500260446009677
:1003600000688168C943C9072DD0816841F0010147
:100370008160164816490068B0FBF1F000E0401EAD
:1003800000900028FBD100F0B3FE054616E000BF48
:1003900000F0AEFE401B022810D920688068C043E0
:1003A000C0070BD0A06A40F01000A062E06A40F0E5
:1003B0000100E06284F824600120F8BD20688068B4
:1003C000C043C007E4D10020F8BD00004400002075
:1003D00040420F00FEE70000014800F077BC00003B
:1003E0000803002030B590F840500124AC40C56BA4
:1003F0006C60046863604368102B036803D09960E5
:100400000068C26030BD9A600068C16030BD70474E
:1004100072B6FEE71048114902681C30B2F5407F01
:1004200004D0A2F54072033A0BD106E00A780270BC
:100430004A7842708978817003E0CA78C27009797D
:100440000171417805483038462901D3012100E087
:100450000021417070470000AC02002030000020F5
:10046000F8B50024009490F824202546012A12D0E3
:10047000012280F824204A681F23072A0DD206682B
:10048000776B521E02EB820293409F430B689340AE
:100490001F43776319E00220F8BD06680D2A0AD2CF
:1004A000376BD21F02EB820293409F430B6893404D
:1004B0001F43376309E0F76A0D3A02EB820293406B
:1004C0009F430B6893401F43F7620A68072306683F
:1004D0000A2A0AD3F7680A3A02EB420293409F4382
:1004E0008B6893401F43F76008E0376902EB4202D4
:1004F00093409F438B6893401F4337610A68102ADB
:1005000001D0112A20D1124B02689A4217D1936868
:100510001B0219D4936843F40003936009681029FF
:1005200012D10C490C4A0968B1FBF2F101EB8101CF
:10053000490000E0491E00910029FBD104E0816AD6
:1005400041F020018162012480F824502046F8BD4A
:10055000002401404400002040420F00006805498B
:10056000884206D10448A0F1200102684A6140682F
:1005700088617047002401402000002070477047C8
:100580002DE9F0414FF0000704003D467ED0A06AFF
:10059000002628B9E66284F82460204600F07EF840
:1005A0002046FFF775FEA16AC90600D420B1A06AF3
:1005B00040F01000A06269E0A16A21F4885141F086
:1005C0000201A1626268E169237B0A4347EA4301B1
:1005D0000A43A1684FF48077B94209D0012907D0B6
:1005E0005FF0000194F814C0BCF1010F02D00AE0E2
:1005F0003946F7E7F3B1A36A43F02003A362E36A45
:1006000043F00103E3622368D3F804C02CF4694C7F
:100610004CEA010CC3F804C021688B68DFF870C095
:1006200003EA0C0313438B60A168B9420BD0012984
:1006300009D00CE0DFF85CC0A3690CEB43330B433B
:1006400043F40061DFE7218A0D05A5F580152168D7
:10065000CB6A23F470032B43CB62216889680E4B6D
:100660001940914208D1E662A16A21F0020141F0ED
:100670000101A162BDE8F081A06A20F0020040F013
:100680001000A062E06A40F00100E0620120F1E7A2
:10069000FDF7E1FF00E0FFFFFE0E1FFF70B586B023
:1006A00000250646009501950295039500681A49B4
:1006B00088422ED11949886940F4007088618869A0
:1006C00000F400700490886940F004008861886933
:1006D000694600F0040004900C2000900320019073
:1006E0000F4800F003FC104C0E48C4E900058020C0
:1006F000C4E9025080002061800060612020C4E9CC
:100700000605204600F08CFB08B1FFF781FE34623D
:10071000666206B070BD0000002401400010024077
:100720000008014008000240080300202DE9F047BE
:10073000894604463B4900683B4F0E1D904688425F
:1007400001D0B84207D1306810F4702F03D00125D2
:100750002846BDE8F08794F8240001280CD0012039
:1007600084F824002046FFF7F7FD05004FF0000055
:1007700004D084F82400EBE70220EAE7A16A40F6FF
:100780000162914341F48071A1622168B94218D19C
:10079000326812F4702F14D0A16A41F48011A16262
:1007A0003168490505D5A16A21F4005141F4805111
:1007B000A162A16AC9040AD5E16A21F00601E162D9
:1007C00006E0A26A22F48012A2624968E9E7E062C8
:1007D00084F82400216A15488862216A1448C86296
:1007E000216A1448086321686FF0020008602068DD
:1007F000816841F480718160216843464A464C31EA
:10080000206A00F03BFB20688168C1F34241072960
:10081000816803D041F48011816099E741F4A0011F
:10082000FAE700000024014000280140E702000828
:100830004F03000835030008F0B590F82050046815
:10084000A468012D05D0022D03D0416A41F4802116
:1008500053E014F0406F01D1E5004BD5C4F30164BF
:10086000022C03D9416A41F4000146E00125A5406C
:100870001D608D684FF4C0739DB1CE6835434E68DE
:1008800045EAC605066803EB0417F5514FF4C27537
:10089000076805EB04150E697E51097D012905D015
:1008A00009E00E88CD6845EA4655EBE701684E59E8
:1008B00046F480764E511179D2F805504FF4C67641
:1008C00041EA0525016806EB04168D511178D2F82E
:1008D00001204FF4C47541EA0221026805EB0415BA
:1008E0005151006803EB0411425842F0010242509A
:1008F0000020F0BD416A41F4001141620120F0BDC9
:1009000010B590F820300268012B07D0022B05D0DB
:10091000416A41F480214162012010BDD2F80002F9
:1009200040F00100C2F80002087D00F01F03012022
:100930009840D2F81C328343C2F81C32CB69B3B959
:10094000D2F80C328343C2F80C328C894B6864F3C2
:100950001F434C6902EBC404C4F840320C890B6895
:1009600064F31F434C6902EBC404C4F84432CB69FE
:10097000012B16D1D2F80C320343C2F80C320C888A
:100980004B6864F31F434C6902EBC404C4F8403263
:100990000C89CB6864F31F434C6902EBC404C4F8B0
:1009A00044328B69002BD2F804320FD053EA000393
:1009B000C2F804320B69002BD2F8143208D003437A
:1009C000C2F81432096A012904D008E08343EFE732
:1009D0008343F5E7D2F81C120143C2F81C12D2F887
:1009E000000220F00100C2F80002002010BD30B566
:1009F00090F82040012C05D0022C03D0416A41F42C
:100A000080215DE00468002955D02469A40754D0F2
:100A10004FF4D874056804EB01142D5915F0040542
:100A2000956005682D594ED0ED08556005682C5924
:100A300004F00204D4604FF4DA74056804EB011486
:100A40002D5905F00F05156105682D59C5F30725CA
:100A5000956105682C59240C54614FF4DC720468CC
:100A600002EB0112A4581C700468A458240A5C709C
:100A70000468A458240C9C700468A258120EDA7002
:100A80004FF4DE72046802EB0112A4581C71046872
:100A9000A458240A5C710468A458240C9C7104684E
:100AA000A258120EDA71006881B1016941F020018B
:100AB0000161002030BDE468A8E7416A41F40011FB
:100AC0004162012030BD6D0D1560AFE7C16841F096
:100AD0002001C160EDE770B5040003D094F8200058
:100AE00010B104E0012070BD204600F081F82068BC
:100AF000016841F00101016000F0FAFA054605269F
:100B000004E000F0F5FA401B0A2811D8206840687C
:100B1000C007F6D02068016821F00201016000F0F2
:100B2000E7FA05460BE000F0E3FA401B0A2806D975
:100B3000606A40F40030606284F82060D2E7206888
:100B400040688007EFD4207E0128206801683DD0EE
:100B500021F080010160607E01282068016838D0A2
:100B600021F040010160A07E01282068016833D097
:100B700021F020010160E07E0128206801682ED06C
:100B800041F010010160207F01282068016829D010
:100B900021F008010160607F01282068016824D0ED
:100BA00021F004010160D4E902010843D4E90412F0
:100BB000114308436168491E08432168C861002049
:100BC0006062012084F82000002070BD41F08001A7
:100BD000C0E741F04001C5E741F02001CAE721F03C
:100BE0001001CFE741F00801D4E741F00401D9E753
:100BF00010B586B000210091019102910391006827
:100C0000184988422BD11848C16941F00071C1616F
:100C1000C16901F000710491816941F008018161AD
:100C20008069124C00F0080004904FF4807000902E
:100C30006946204600F05AF96015009002200190A4
:100C4000032003906946204600F050F908484168A7
:100C500021F4C04141F0E06141F48041416006B0BF
:100C600010BD00000064004000100240000C014074
:100C70000000014070B5044690F82000012804D01F
:100C8000606A40F40020606218E0022084F82000CE
:100C90002068016821F00101016000F029FA054691
:100CA0000EE000BF00F024FA401B0A2808D9606A51
:100CB00040F400306062052084F82000012070BDFF
:100CC00020684068C007EDD1606270BD2DE9F05F1B
:100CD000C16B0C6801680B68D0F840C0042202FAAE
:100CE0000CF2494DDFF824A1494E4A4FDFF828B1F4
:100CF000DFF828E122422CD05A072AD50A6892064A
:100D000003D40A6822F004020A600168A94201D1F2
:100D1000042219E0514501D1402215E0B14202D12F
:100D20004FF4806210E0B94202D14FF480420BE0F0
:100D3000594502D14FF4802206E0714502D14FF4AB
:100D4000800201E04FF080622F4908394A60C16A91
:100D50003BE04FF0020808FA0CF818EA040F4FF0D5
:100D600000094FF0010235D05FEA837832D50B6875
:100D70009B0605D40B6823F00A030B6080F8212042
:100D80000168A94201D1022219E0514501D1202276
:100D900015E0B14202D14FF4007210E0B94202D125
:100DA0004FF400520BE0594502D14FF4003206E0F7
:100DB000714502D14FF4001201E04FF00072124968
:100DC00008394A6080F82090816A00291AD0BDE86D
:100DD000F05F0847082505FA0CF5254212D01B07DD
:100DE00010D50B6823F00E030B6090F84010C36B16
:100DF00002FA01F15960826380F8212080F8209086
:100E0000016BE2E7BDE8F09F080002401C000240D1
:100E10003000024044000240580002406C00024092
:100E200030B528B308C8134914221944B1FBF2F1B4
:100E30008900C16310498163022141771A6843F632
:100E4000F0718A43D0E900142143D0E902452C43D4
:100E500021430469214344692143846921431143A7
:100E6000196000214163012242770177084630BDB5
:100E7000012030BDF8FFFDBF0000024070B5044600
:100E800090F82000002501280CD0012084F82000D3
:100E900094F821600020012E06D084F8200002255D
:100EA000284670BD022070BD022684F82160A06330
:100EB0002068066826F0010606602046FFF792FAD1
:100EC000E06A00282068016802D041F00E0106E0C7
:100ED00021F0040101602068016841F00A0101600D
:100EE0002068016841F001010160D9E72DE9F84F60
:100EF000DFF8B891002409F1040A0AF1040B234633
:100F00000F270BF1040EC9E00125A5402A40AA4293
:100F10007DD1674ED1F804C0ACEB0608B44532D0A1
:100F200014DCBCF1030F3AD009DCBCF1000F2AD06D
:100F3000BCF1010F1CD0BCF1020F31D11DE0BCF19E
:100F4000110F17D0BCF1120F2AD119E0B8F5881F84
:100F500019D006DCB8F5803F15D0B8F5801F1FD139
:100F600011E0B8F5001F0ED0B8F5041F18D10AE043
:100F7000CB6815E0CB681B1D12E0CB6808330FE08F
:100F8000CB680C330CE08B682BB1012B4FF00803BE
:100F900003D0456104E0042302E0056100E0002382
:100FA000FF2A01D8064601E000F104064FEA840555
:100FB00001D9A5F12005D6F8008007FA05FC28EA3A
:100FC0000C0803FA05F548EA0508C6F800804D68E4
:100FD000ED0062D5374DAE6946F00106AE61AD69F0
:100FE00024F0030605F001050095334D06EB050CD2
:100FF000DCF80850A607360F07FA06F825EA0805B8
:10100000DFF8B880404503D14FF0000817E044E016
:10101000DFF8AC80404502D14FF001080FE0DFF867
:10102000A480404502D14FF0020808E0DFF8988024
:10103000404502D14FF0030801E04FF0040808FAE0
:1010400006F848EA0508CCF808804D68D9F8006031
:10105000ED034D4601D5164300E096432E604D68E2
:10106000DAF80060AD03554601D5164300E096431B
:101070002E604D68DBF80060ED025D4601D5164339
:1010800000E096432E604D68DEF80060AD027546C4
:1010900001D5164300E096432E60641C0D682A4675
:1010A000E5407FF431AFBDE8F88F00000004014057
:1010B0000000111000100240000001400008014033
:1010C000000C0140001001400014014080680840FD
:1010D00000D001207047C26821EA02030A4043EAB7
:1010E0000241016170470AB1016170470904FBE7E1
:1010F000014880687047000038000020024881687D
:10110000027811448160704738000020074810B50C
:10111000016841F010010160032000F075F80F2014
:1011200000F006F800F024F8002010BD0020024076
:1011300070B50D4D04464FF47A712878B1FBF0F08C
:101140000A490968B1FBF0F000F01AFC48B9102C0C
:1011500007D200222146501E00F036F800206C60B5
:1011600070BD012070BD0000380000204400002048
:101170000C4808B5816941F001018161816901F084
:1011800001010091C16941F08051C161C06900F065
:10119000805000900448416821F0E06141F0007106
:1011A000416008BD0010024000000140002809DB3A
:1011B00000F01F02012191404009800000F1E02071
:1011C000C0F8001170470000F0B40E4B1B680C46CD
:1011D000C3F30223C3F10705042D00D90425191D0B
:1011E000072901D2002300E0DB1E012606FA05F1E3
:1011F000491E214099409E40761E16403143F0BC66
:1012000001F06BB90CED00E0064900F00702086838
:101210004FF6FF03184040EA0220034A10430860DB
:10122000704700000CED00E00000FA052DE9F843DE
:1012300005460078354CC00754D0E0690026C00050
:1012400008D4E06940F08050E061E069012600F0D8
:10125000805000902E480168C90512D4016880466C
:1012600041F480710160FFF743FF074605E000BFCE
:10127000FFF73EFFC01B642823D8D8F80000C00544
:10128000F6D5206A10F4407021D0A98801F440718D
:1012900081421CD0206A1F49012220F440700A605C
:1012A00000220A602062C00711D0FFF721FF074625
:1012B00041F2883808E000BFFFF71AFFC11B414523
:1012C00002D90320BDE8F883206A8007F4D5206A9C
:1012D000696820F44070084320621EB1E06920F084
:1012E0008050E0612878800705D56068A96820F4FF
:1012F0004040084360602878C00605D56068E9680A
:1013000020F48000084360600020DBE7001002400A
:1013100000700040400442422DE9F0470F460500AE
:1013200061D0434E306800F00700B84209D23068FF
:1013300020F0070038433060306800F00700B84202
:1013400051D128683B4C810712D5400703D560680E
:1013500040F4E06060602878000703D5606840F4DE
:10136000605060606068A96820F0F0000843606029
:101370002878C00728D06868012810D02168022882
:1013800010D0890700292EDA616821F0030101439A
:101390006160FFF7ADFE804641F288390DE02168BB
:1013A0008903EFE78901EDE7FFF7A2FEA0EB080153
:1013B000494502D90320BDE8F0876068696800F0FC
:1013C0000C00B0EB810FEFD1306800F00700B8429D
:1013D0000BD9306820F0070038433060306800F0E7
:1013E0000700B84201D00120E5E72878400705D57D
:1013F0006068E96820F4E0600843606028780007CE
:1014000006D56068296920F4605040EAC100606038
:1014100000F038F86168084AC1F30311515CC84014
:101420000649086006480068FFF782FE0020C2E710
:10143000002002400010024008270008440000205D
:101440003C0000200448054900684968044AC1F38B
:101450000221515CC8407047440000200010024047
:10146000182700080448054900684968044AC1F380
:10147000C221515CC8407047440000200010024067
:101480001827000812A185B00FC98DE80F0014A01D
:10149000144A006804905168134801F00C03042BAF
:1014A00010D0082B0ED1C1F38343C9031DF80300EC
:1014B0000AD5516804AAC1F34041515C0A4A50431D
:1014C000B0FBF1F005B0704708494843FAE7000067
:1014D00002030405060708090A0B0C0D0E0F101075
:1014E000010200000010024000127A0000093D00D5
:1014F0002DE9F84F040070D02078C04DC00749D0C6
:101500006868C0F38100012807D06868C0F38100D3
:10151000022809D16868C00306D52868800339D538
:1015200060680028E7D035E06068B0F5803F0BD0F8
:1015300010B1B0F5A02F11D0286820F480302860B9
:10154000286820F4802002E0286840F48030286079
:10155000606890B1FFF7CCFD06460AE0286840F4C9
:1015600080202860F0E700BFFFF7C2FD801B6428E1
:1015700073D828688003F7D50CE0FFF7B9FD06465D
:1015800005E000BFFFF7B4FD801B6428F0D8286891
:101590008003F7D420789A4E80074FF001094FF06E
:1015A000000839D5686810F00C0F07D06868C0F3E0
:1015B0008100022809D16868C00306D42868800722
:1015C00014D52069012808D110E02069B0B1C6F80F
:1015D0000090FFF78DFD074605E00AE1FFF788FD63
:1015E000C01B0228C4D828688007F7D5286861691D
:1015F00020F0F80040EAC10028600DE0C6F8008045
:10160000FFF776FD074604E0FFF772FDC01B0228D6
:1016100023D828688007F7D4207800072CD579488C
:10162000A169D9B1C0F80090FFF762FD074604E058
:10163000FFF75EFDC01B02280FD8686A8007F7D548
:1016400071484FF4FA510068B0FBF1F0009000BF10
:101650000098411E0091FAD20EE080E0C0F80080B0
:10166000FFF746FD074604E0FFF742FDC01B0228D6
:1016700075D8686A8007F7D42078400760D5E86994
:101680000027C00008D4E86940F08050E861E869AC
:10169000012700F0805000905C480168C90513D410
:1016A0000168834641F480710160FFF721FD8246A5
:1016B00006E000BFFFF71CFDA0EB0A0064284ED82F
:1016C000DBF80000C005F5D5E06801280AD008B1B4
:1016D000052813D0286A20F001002862286A20F02B
:1016E000040002E0286A40F001002862E06841F24C
:1016F000883B98B1FFF7FCFC82460BE0286A40F07B
:1017000004002862EEE700BFFFF7F2FCA0EB0A013D
:1017100059455AD8286A8007F6D50CE0FFF7E8FC4F
:10172000824605E0FFF7E4FCA0EB0A0159454CD8DE
:10173000286A8007F6D41FB1E86920F08050E8617C
:10174000E06988B36968C1F38101022944D00228A5
:10175000C6F8608004D0FFF7CBFC044638E034E0E4
:10176000FFF7C6FC074604E0FFF7C2FCC01B0228D7
:101770002BD828688001F7D4206AB0F5803F05D1C6
:101780006868A16820F4003008436860D4E9080163
:101790000843696821F4741108436860C6F86090D2
:1017A000FFF7A6FC044606E025E000BFFFF7A0FC1B
:1017B000001B022809D828688001F7D51BE000BF6C
:1017C000FFF796FC001B022802D90320BDE8F88F22
:1017D00028688001F4D40EE00128F7D06868226AF6
:1017E00000F48031914204D1616A00F470108842A3
:1017F00001D00120EAE70020E8E7000000100240E5
:101800000000424280044242440000200070004038
:1018100070B5040009D0606A002540B1256165619A
:10182000A56294F8510040B10CE0012070BD6068E1
:10183000B0F5827FF4D0E561F2E784F8505020469D
:1018400000F040F8022084F851002068016821F07F
:1018500040010160A088218900F4827001F40441F4
:101860000843A18901F400610843217C01F00201D1
:101870000843217D01F001010843218B01F400712F
:101880000843217F01F03801084394F8201001F04B
:1018900080010843218D01F400510843216808604C
:1018A000A069042101EA1040216848602068C169EC
:1018B00021F40061C1616565012084F851000020B8
:1018C00070BD000070B586B00024009401940294AD
:1018D0000394264E05682649022203232548B54273
:1018E0001FD18C6944F480548C618C6904F4805459
:1018F00004948C6944F008048C618969039301F0B5
:10190000080104912821CDE900126946FFF7EEFA9B
:101910001948416841F0E06141F00101416006B0C1
:1019200070BD164EB542FAD1CD6945F48045CD6102
:10193000CD6905F4804504958D6945F008058D61F4
:101940008969039301F0080104914FF42041CDE926
:10195000001269460546FFF7C9FA3014CDE90004C4
:10196000694628460294FFF7C1FAD8E700300140E3
:1019700000100240000C014000000140003800400F
:1019800010B5401EB0F1807F01D3012010BD4FF093
:10199000E02460610F21601700F09FFD0020A0612E
:1019A00007202061002010BD7047704770B590F887
:1019B0003C20012A26D0012480F83C40022280F8F5
:1019C0003D2003685A689D6822F070060A68324319
:1019D0005A600D4B02689A4208D0B2F1804F05D090
:1019E0000A4B9A4202D00A4B9A4204D1496825F028
:1019F00080031943916080F83D40002180F83C103D
:101A0000084670BD022070BD002C0140000400405B
:101A10000008004010B5040003D094F83D0010B158
:101A200007E0012010BD002084F83C00204600F0B3
:101A30001FF8022084F83D00211D206800F084FC7E
:101A4000012084F8460084F83E0084F83F0084F8C2
:101A5000400084F8410084F8420084F8430084F890
:101A6000440084F8450084F83D00002010BD0000CB
:101A700008B501681D48B1F1804F11D01C4A914250
:101A80001DD1C16941F00201C161C069002200F0AD
:101A90000200009011461D20FFF796FB1D201FE05D
:101AA000C16941F00101C161C069002200F001007B
:101AB000009011461C20FFF787FB1C2010E00D4A08
:101AC000914211D1C16941F00401C161C069002294
:101AD00000F00400009011461E20FFF775FB1E2049
:101AE000BDE80840FFF762BB08BD000000100240DF
:101AF000000400400008004090F83D10012901D08A
:101B000001207047022180F83D100168CA6842F048
:101B10000102CA6000680B49884208D0B0F1804FCA
:101B200005D00949884202D00849884204D1816819
:101B300001F00701062903D0016841F001010160AD
:101B400000207047002C01400004004000080040C5
:101B500070B5044690F83C00012817D0012584F8A0
:101B60003C50022084F83D002068826822F0770211
:101B700022F47F4282600868502830D00DDC202893
:101B80004DD005DC98B310283BD148E0022070BD51
:101B9000302844D0402834D139E0602828D070283B
:101BA00006D0B0F5805F2CD0B0F5005F29D10AE0F7
:101BB000CB68D1E90121206800F0FCFB2068816836
:101BC00041F0770109E0CB68D1E90121206800F0FC
:101BD000F1FB2068816841F48041816011E0CA68AE
:101BE0004968206800F0F8FB5021206807E016E003
:101BF000CA684968206800F000FC6021206800F095
:101C0000E3FB84F83D50002084F83C0070BDCA68B6
:101C10004968206800F0E0FB40212068EFE7226877
:101C200001461046EBE7704770B50446006801694D
:101C30004FF00005C943890715D4C168C943890716
:101C400011D4E91E01610120207720688069800796
:101C5000204602D0FFF7E7FF04E000F098F82046A6
:101C600000F096F8257720680169C943490717D421
:101C7000C168C943490713D46FF004010161022010
:101C800020772068806910F4407F204602D0FFF75B
:101C9000CAFF04E000F07BF8204600F079F82577D1
:101CA00020680169C943090716D4C168C9430907F7
:101CB00012D46FF008010161042020772068C06908
:101CC0008007204602D0FFF7AEFF04E000F05FF887
:101CD000204600F05DF8257720680169C943C906F0
:101CE00017D4C168C943C90613D46FF0100101614C
:101CF000082020772068C06910F4407F204602D079
:101D0000FFF791FF04E000F042F8204600F040F8B1
:101D1000257720680169C943C90708D1C168C9434B
:101D2000C90704D1891E0161204600F033F82068FC
:101D30000169C943090609D4C168C943090605D424
:101D40006FF0800101612046FFF72EFE20680169D7
:101D5000C943490609D4C168C943490605D46FF08F
:101D600040010161204600F07DF820680169C94307
:101D700089060BD4C168C943890607D46FF02001D6
:101D800001612046BDE87040FFF70FBE70BD70478F
:101D9000704700002DE9F04105460068B0F1804F22
:101DA0000BD12A4B2A4903F10C02A1F50770FEF76B
:101DB00043FD00F0A3FB00F015FC244C25492868E6
:101DC000254E1C3C88421BD1E0898F14DFF88C80A3
:101DD000012807D139464046FFF77DF901213046F9
:101DE000FFF779F96088012803D139464046FFF7AB
:101DF00072F9A088012803D101213046FFF76BF961
:101E000017492868884212D1A08901280FD120697A
:101E100078B101280BD1002240213046FFF763F949
:101E2000012280213046FFF75EF900202061BDE8E5
:101E3000F081012240213046FFF755F90022802130
:101E40003046FFF750F90120F0E700001C000020A9
:101E5000940200200004004000080140000C0140F2
:101E600000080040704770B5040004D094F83D00AD
:101E7000002510B106E0012070BD84F83C502046DA
:101E800000F022F8242084F83D002068C16821F485
:101E90000051C160204600F0C3FA2068016921F4B6
:101EA000904101612068416921F02A014161206867
:101EB000C16841F40051C1602564202084F83D00D0
:101EC00084F83E00002070BD30B585B00024009439
:101ED00001940294039400681449884224D1144860
:101EE000C16941F48021C161C16901F4802104917B
:101EF000816941F00801816180690E4D00F00800A0
:101F000004904FF480600090022001900320039021
:101F100069462846FEF7EAFFE814CDE90004694661
:101F200028460294FEF7E2FF05B030BD00480040AD
:101F300000100240000C0140FEE700003EB5002109
:101F4000174800910191154A029102609215826032
:101F500001250573017502244FF460220461C261FA
:101F60004160FEF70DFB08B172B6FEE70520009454
:101F7000CDE9015069460A48FEF772FA08B172B617
:101F8000FEE70320CDE9000469460548FEF768FA3C
:101F9000002801D072B6FEE73EBD000000240140DB
:101FA000480000200E4810B50C490160092141602D
:101FB00000214FF400328160C0E903124FF4401257
:101FC0004261017641768176C17601774177FEF7ED
:101FD00082FD002801D072B6FEE710BD006400400B
:101FE000780000202DE9F04786B0002435480094A1
:101FF000019402940394816941F010018161816927
:1020000001F010010491816941F020018161816931
:1020100001F020010491816941F00401816181692D
:1020200001F004010491816941F008018161806936
:10203000DFF8948000F008004FF46045049000221F
:1020400029464046FFF74FF8DFF880A00022D32151
:102050005046FFF748F8DFF8789041F2D0070022A9
:1020600039464846FFF73FF80126CDE900560225DC
:1020700069464046CDE90245FEF738FFD320CDE959
:10208000000669465046CDE90245FEF72FFF0320C2
:102090008DE8310069464846FEF728FFCDE9007615
:1020A00069464846CDE90245FEF720FF4FF41F4040
:1020B0008DE8310069465046FEF718FF06B0BDE8CE
:1020C000F0870000001002400010014000080140AD
:1020D000000C0140104810B50E4901604FF48271A8
:1020E00041604FF4004181600021C1604FF40072F3
:1020F0000161C0E905120822C0E90721416281623D
:102100000A21C162FFF784FB002801D072B6FEE706
:1021100010BD000000300140A00000200E4810B5A6
:102120000C4901604FF48271416000218160C160FF
:102130004FF400720161C0E90512C16101624162A0
:1021400081620A21C162FFF763FB002801D072B6E9
:10215000FEE710BD00380040F800002010B586B042
:1021600000241748009401940294039404944FF0BF
:102170008041059401604FF4FA71C0E901144FF4F5
:10218000E151C0E9031480218161FFF743FC08B1EC
:1021900072B6FEE74FF48050009069460848FFF79A
:1021A000D7FC08B172B6FEE7049404A9044805946C
:1021B000FFF7FCFB002801D072B6FEE706B010BDA9
:1021C0005001002010B586B00024184800940194F6
:1021D00002940394049414490594016040F60F613D
:1021E000C0E9011442F20F71C0E90314802181613A
:1021F000FFF710FC08B172B6FEE74FF48050009074
:1022000069460A48FFF7A4FC08B172B6FEE70494D9
:1022100004A906480594FFF7C9FB002801D072B64F
:10222000FEE706B010BD0000000400409801002049
:1022300010B586B0002418480094019402940394C9
:10224000049414490594016040F60F61C0E901143B
:1022500041F65731C0E9031480218161FFF7DAFBB1
:1022600008B172B6FEE74FF48050009069460A4804
:10227000FFF76EFC08B172B6FEE7049404A90648A5
:102280000594FFF793FB002801D072B6FEE706B075
:1022900010BD000000080040E0010020FEE7FEE75E
:1022A00070477047FEF72ABF30B593B028216846C3
:1022B000FDF78AFF14210AA8FDF786FF00250120FB
:1022C0000F9510951195010412958DE82300049047
:1022D0004FF4E010CDE90810022407946846FFF798
:1022E00007F908B172B6FEE70AA90F2081E83100AC
:1022F0004FF48060CDE90D0502210AA8FFF70CF824
:1023000008B172B6FEE74FF4004011900F940FA889
:10231000FEF78CFF002801D072B6FEE713B030BD87
:10232000704700000148FFF77FBC0000500100200B
:102330000148FFF779BC0000980100200148FFF731
:1023400073BC0000E0010020F0B50268164B174C8A
:10235000174D4FF08047984205D0B84203D0A042B5
:1023600001D0A84203D122F070064A683243984255
:1023700005D0B84203D0A04201D0A84203D122F434
:102380004074CA6822434C6922F0800222430260F2
:102390008A68C2620A688262984201D1096901634F
:1023A00001214161F0BD0000002C0140000400400B
:1023B0000008004010B5846842EA032224F47F44F8
:1023C0000A432243826010BD826822F070020A43F1
:1023D00042F007018160704710B5036A046A24F077
:1023E00001040462846924F0F00444EA021423F036
:1023F0000A020A438461026210BD10B5036A23F029
:10240000100303628369046A23F4704343EA0232CF
:1024100024F0A00343EA01118261016210BD0000B3
:1024200070B5044600680169E26821F44051114327
:1024300001612169A0680843616908432168CA688D
:1024400041F20C639A430243CA6020684169A26961
:1024500021F44071114341611E492068884202D134
:10246000FFF700F801E0FEF7EDFF00EBC00101EB24
:102470000012606864218000B2FBF0F3B3FBF1F35B
:102480006FF018067343B2FBF0F5B2FBF0F605EB04
:102490008305322303EB0515B5FBF1F5B6FBF1F629
:1024A00005F0F00505EB0615B2FBF0F6B2FBF0F017
:1024B000B0FBF1F06FF01802504306EB800003EB25
:1024C0000010B0FBF1F0216800F00F002844886094
:1024D00070BD000000380140FEE70907090E002822
:1024E00004DB00F1E02080F80014704700F00F00DA
:1024F00000F1E02080F8141D704700002DE9F04144
:10250000354D4FF400412846FEF7E0FD334C344E84
:102510004FF480576080E189084304D10022394696
:102520003046FEF7E0FD4FF480712846FEF7CEFD01
:10253000A080E189084304D1002201212846FEF74A
:10254000D2FD4FF480612846FEF7C0FDE0814FF4D4
:1025500000712846FEF7BAFDE08020B90022102164
:102560002846FEF7C0FDE088012804D10122102191
:102570002846FEF7B8FD4FF400612846FEF7A6FD99
:10258000208120B9002202212846FEF7ACFD2089D7
:10259000012804D1012202212846FEF7A4FD0121D1
:1025A0003046FEF793FD6081002610B1012802D06D
:1025B00003E0267001E00120207039462846FEF72E
:1025C00085FDA081002805D10022C0212846FEF704
:1025D0008AFD2661BDE8F08100080140000000206E
:1025E000000C0140074A08484FF4C0411378012B02
:1025F00006D05278012A03D05FF00002FEF773BDC7
:102600000122FBE7000000200010014008B5FEF7A2
:102610007DFDFFF749FEFFF7E5FC3648416941F0D3
:10262000010141614069002200F001000090114663
:102630000B20FEF7C9FD0B20FEF7B8FDFFF7B2FC3B
:10264000FFF748FDFFF76AFD2C482B490024016085
:102650004FF41651C0E901140C21C460C0E90441D3
:102660008461C461FFF7FFFB08B172B6FEE7FFF7B4
:1026700075FDFFF763FCFFF7A5FDFFF7D9FD1F48C8
:1026800008216C308460C0E9034140F2FF710160B1
:1026900004751B488021017041701848D838FFF735
:1026A0002BFA16489038FFF727FA14484838FFF7F6
:1026B00023FA1349022208391248FEF737F80F4867
:1026C00001214430C161046101620146A0F5FA7044
:1026D000FEF716F90B483030FEF7CCFA074A084BE4
:1026E000843208330021A2F50D70FEF780F9FDF762
:1026F00091FEF3E70010024000480040280200204D
:102700002800002048000020000000000000000019
:102710000102030406070809000000000102030487
:1027200040270008000000204800000028010008A1
:1027300088270008480000206809000044010008BC
:102740000000000000000000000000000000000089
:102750000000000000000000000000000000000079
:102760000000000000000000000000000000000069
:102770000000000000000000010000001000000048
:08278000000000000024F40039
:04000005080000ED02
:00000001FF
